:020000040000FA
:1000000001288501860183160430850086018B0155
:10001000831207309F0077280B280630A000253078
:10002000A1007D30A20000000A30A300A30B162817
:10003000051D2128A20B1428A10B1128A00B0F28A5
:10004000080006182628861926281428061486145F
:1000500006158615061686166430A0006430A100C9
:100060006430A200A20B3228A10B3028A00B2E284E
:10007000061086100611861106128612792886143B
:100080000D2086100D2006140D2006100D2086145C
:100090000D2086100D2006160D2006120D20861448
:1000A0000D2086100D2086160D2086120D200615B7
:1000B0000D2006110D2006140D2006100D2006152A
:1000C0000D2006110D2006150D2006110D20861697
:1000D0000D2086120D2006140D2006100D20861509
:1000E0000D2086110D20772806140D2077283F2833
:0200F00077286F
:02400E00103F61
:00000001FF
